:10121F005354415455533A6F62737461636C650054
:10122F00D6C7C4DCD0A1B3B500544D264257264AC9
:02123F0043006A
:100F4400E4F5CAF5C9F594F593F592F591F596F59E
:100F5400951213717F647E001213BF12107B7F649D
:100F64007E001213BF12118D12133B7A127B2F7D58
:100F740001E4FF120FBB7A127B387D02E4FF120FEB
:100F8400BB7F647E001213BF12143A7FE87E031203
:100F940013BF1210231213E5121467D3EF941EEE3D
:100FA4009400500E7BFF7A12791F1212A41212E3DE
:070FB40080D912130280D462
:1012C4008F21121241D2A0C2A18521807F0A7E0003
:0F12D4001213BFD2A27F0A7E001213BFC2A22242
:0611F6007D017C007F304A
:1011FC008F21ED4C6003121241C2A0C2A185218047
:10120C007F0A7E001213BFD2A27F0A7E001213BF88
:03121C00C2A22249
:101241007580FFC2A0D2A17F0A7E001213BFD2A275
:101251007F0A7E001213BFE58020E7FBC2A2AF80A8
:01126100226A
:10118D00D2A37F0A7E001213BFC2A47F0A7E001273
:10119D0013BFD2A47F647E001213BF1211F67D011E
:1011AD007C007F011211FC7D017C007F061211FC79
:0911BD007D017C007F0C0211FC95
:10133B007D017C007F011211FC7D017C007F34124A
:0B134B0011FC7D017C007F300211FCD2
:060FBB008F1D8A1E8B1F32
:100FC100E4F520EDC3940150027D01EDD39404407A
:100FD100027D04531D0FED24FE600F146011146097
:100FE1001324037012430780800D43079080084348
:100FF100078880034307987D017C001211FCE51FDF
:101001002520F582E4351EF583E493FFC394204047
:1010110010E51DD3940F50E61212C40520051D8062
:01102100DDF1
:0110220022AB
:040D9E008E228F23EF
:100DA200E4F527F528F526E526C39409506AE4F50B
:100DB200247D017C007F341211FCE5242480FF7D18
:100DC200017C001211FCE5262480FF7D017C0012CB
:100DD20011FC1211F6E4F5257E00E5282525FFEE2B
:100DE2003527FEE5232FF582E5223EF583E493FFC6
:100DF2001212C40525E525C3941040DC7410252881
:100E0200F528E43527F5270524E524C3942040A1DD
:100E120074082526F526808F7D017C007F3612110D
:0A0E2200FC7D017C007F300211FC12
:0E13E50000007F0A7E1F7D93DDFEDEFCDFFA36
:0113F30022D7
:1013BF00EF1FAC0670011E4C600A7D0C7CA9DCFE91
:0413CF00DDFC80ECD5
:0113D30022F7
:0813F4007F067ED3DEFEDFFC64
:0113FC0022CE
:0813FD007F017E92DEFEDFFCA1
:0114050022C4
:0614520000007F06DFFE32
:011458002271
:0614590000007F57DFFEDA
:01145F00226A
:0614600000007F1BDFFE0F
:011466002263
:081406007F0B7E7EDEFEDFFCA1
:01140E0022BB
:08140F007F0C7EA9DEFEDFFC6C
:0114170022B2
:081418007F357E84DEFEDFFC5F
:0114200022A9
:081421007F077EFEDEFEDFFC0A
:0114290022A0
:100E2C00CBD9B6C8B8C4B1E4004368616E676553EA
:100E3C00706565640A00466F72776172640A00D04F
:100E4C00A1B3B5C7B0BDF8004261636B7761726442
:100E5C000A00D0A1B3B5BAF3CDCB20005475726E95
:100E6C004C6566740A00D0A1B3B5D7F3D7AA20009D
:100E7C005475726E52696768740A00D0A1B3B5D309
:100E8C00D2D7AA0053746F700A00D0A1B3B5CDA30A
:100E9C00D6B900D0A1B3B5B1DCC8C3005370656539
:0C0EAC0064204C6576656C3A2020200024
:1013A6000329324B5F012C01012E00012F00012D74
:0113B6000036
:10107B00E4F596F595D294D29543BA8090FFF2F0B1
:10108B00F5F190FFF07410F0A3E4F090FF44F090B2
:10109B00FF40F0A3F0A37404F0A3E4F090FF54F02E
:1010AB0090FF50F0A3F0A37404F0A3E4F075F530B7
:0910BB0043F58053BA7F0213567D
:100D0800E52ED394005003020D92EFD39400407A5D
:100D1800E52E24FE601414601714601E24037075F9
:100D2800C374649FF51DF51E80188F1D8F1E8012D9
:100D38008F1DC374649FF51E8008C374649FF51DDE
:100D48008F1E43BA80AF1DE4FCFDFEFB7A10F9F854
:100D5800120BDDE47B64FAF9F812110B90FF42EEF6
:100D6800F0A3EFF0AF1EE4FCFDFEFB7A10F9F812D9
:100D78000BDDE47B64FAF9F812110B90FF52EEF0E8
:100D8800A3EFF053BA7F43F5302253F5CFC296C292
:050D980094C297C29512
:010D9D002233
:10114F0078087C007D007BFF7A0E79A87E007F10E7
:10115F00120B35E52C2401FFE433FE7C007D0312D6
:10116F000B888D2CE52C2431F5157A0E7B2C7D0404
:0E117F00E4FF120FBB7BFF7A0E79350212A43B
:10126200752E01D294D295E4F52D1213DB7BFF7A11
:101272000E79421212A47A0E7B4B7D03E4FF020F19
:01128200BBB0
:10131F00752E02C2941213D67BFF7A0E79541212D5
:0C132F00A47A0E7B5E7D03E4FF020FBB7E
:10128300752E03C294D295E4F52D1213DB7BFF7AFE
:101293000E79681212A47A0E7B727D03E4FF020FAB
:0112A300BB8F
:10138C00752E041213D47BFF7A0E797C1212A47A78
:0A139C000E7B877D03E4FF020FBB08
:10135600E4F52EFF120D087BFF7A0E79901212A487
:0B1366007A0E7B967D03E4FF020FBBB4
:0713D400D294C295E4F52D4F
:0A13DB007429252CF8E6FF020D0826
:1012E300E52ED3940040171213D47BFF7A0E797C3A
:0F12F3001212A47A0E7B9F7D03E4FF120FBB2221
:10130200E52E24FE600D14600D14600D2403700C94
:0D13120002126202131F02128312138C22BA
:08143200303030787878780042
:10137100759850438E40538EFE53890F758BE075DF
:0B1381008DFEC2ABD28ED29CD2AC22FB
:08142A008F99C2993099FD224F
:0612A4008B1D8A1E891F4C
:1012AA00E4FEAB1DAA1EA91F8E82758300120B5B7A
:0912BA00FF600612142A0E80E9FF
:0112C3002208
:1011C600EF14601C14601C14601C14601C14601C5A
:1011D6002405701B7BFF7A1479321212A40213566F
:1011E60002126202131F02128302138C12114F2283
:030023000210C404
:1010C400C0E0C0F0C083C082C0D075D000C000C0F2
:0D10D40001C002C003C004C005C006C00773
:0F10E100309807C298AF991211C6309902C29980
:1010F000D007D006D005D004D003D002D001D00054
:0B110000D0D0D082D083D0F0D0E032FD
:0413B7000230FFFF02
:08143A00E4F5B2F5B1D2AF22D6
:10102300E4F51DF51E758901F58CF58AC2A9D2B5C3
:10103300121460C2B530B4FDD28C20B4FDC28CAFA3
:101043008CEFFEAD8A7C00E42DF51EEC3EF51DFC15
:10105300AD1EE41209AB7B9A7A9979D9783F1208CD
:1010630000E4FBFA79C878421209091209E48E30C8
:071073008F31E4F58CF58AD2
:01107A002253
:05146700AE30AF3122A0
:0313BB00013200FC
:08144200E4F5B4F5B3D2AF22CA
:08144A00A2C1E433F532FF22D8
:10080000EC4D6011E8497017ED33EC3304600DE4F2
:10081000FCFFFEFD22E933E8330470F8020A5012AF
:100820000A1B58046009E4CC2481500628500902B0
:100830000A5A284003020A57C0E0EB4A7044B980C4
:1008400006D0E0FB020A46EF4E701CBD8008EBFFAD
:10085000EAFEE9FD80EBE98DF0A4FEE5F00208E98F
:10086000E9CDF9EAFEEBFFEF89F0A4FCE5F0CE89D3
:10087000F0A42EFFE435F0CD89F0A42DFEE435F090
:100880008067EF4E7005BD80D780C3EF8BF0A4ACBE
:10089000F0EE8BF0A42CFCE435F0F8EF8AF0A42CF9
:1008A000E5F038FCE433CB8DF0A42CFCE5F03BF80C
:1008B000EE8AF0A42CFCE5F038F8E433CF89F0A4FC
:1008C0002CFCE5F038CF3400CE89F0A42FFFE5F002
:1008D0003EFEE433C98DF0A42EFEE5F039CD8AF05A
:1008E000A42FFFE5F03EFEE43DFD33D0E0FB5007D2
:1008F0000BBB000F020A5AEC2CFCEF33FFEE33FE69
:06090000ED33FD020A3296
:10090600020A5AEC5D046005E859047003020A50B5
:10091600120A1B580460F6EC4860F2EC7004FDFE07
:10092600FF22C860DB2481C85009C39860025006C4
:10093600020A579850CAF582E9294B4A7005AB82DC
:10094600020A4675F0007C1A7880C3EF9BEE9AED9A
:1009560099400DC3EF9BFFEE9AFEED99FDE842F03C
:10096600DC23ACF0D0E0FFD0E0FED0E0FDAB82208F
:10097600E7101BEB60BAEC2CFCEF33FFEE33FEED19
:1009860033FD020A32E803F830E705C0F075F000DF
:10099600EF2FFFEE33FEED33FD40B830E7C280AAFD
:1009A60075F020800E75F010800575F0087D007ECC
:1009B600007F003392D530D503120C2CEC33401057
:1009C600EF33FFEE33FEED33FDEC33FCD5F0ED22D5
:0E09D600E5F0247EA2D513CC92E7CDCEFF2211
:1009E400EDD2E7CD33EC3392D524814006E4FFFE0B
:1009F400FDFC22FCE4CFCECDCC24E0501174FF806A
:100A0400EDC3CC13CCCD13CDCE13CECF13CF047006
:070A1400F030D5DE020C2CCE
:100A1B00E9D2E7C933E833F892D5EDD2E7CD33EC21
:070A2B0033FC5002B2D5229A
:100A3200EC30E7100FBF000C0EBE00080DBD000425
:100A42000BEB6014A2D5EB13FCED92E7FD2274FFD1
:100A5200FCFDFEFF22E480F8A2D574FF13FC7D802A
:030A6200E480EF3E
:03000000020EB835
:0C0EB800787FE4F6D8FD758132020EFF51
:100A6500E709F608DFFA8046E709F208DFFA803E73
:100A750088828C83E709F0A3DFFA8032E309F60860
:100A8500DFFA8078E309F208DFFA807088828C83C8
:100A9500E309F0A3DFFA806489828A83E0A3F6087C
:100AA500DFFA805889828A83E0A3F208DFFA804C56
:100AB50080D280FA80C680D4806980F2803380102D
:100AC50080A680EA809A80A880DA80E280CA803396
:100AD50089828A83ECFAE493A3C8C582C8CCC5830E
:100AE500CCF0A3C8C582C8CCC583CCDFE9DEE780DE
:100AF5000D89828A83E493A3F608DFF9ECFAA9F05D
:100B0500EDFB2289828A83ECFAE0A3C8C582C8CCB2
:100B1500C583CCF0A3C8C582C8CCC583CCDFEADECB
:100B2500E880DB89828A83E493A3F208DFF980CC2D
:100B350088F0EF60010E4E60C388F0ED2402B40426
:100B45000050B9F582EB2402B4040050AF232345CD
:060B55008223900AB57333
:100B5B00BB010CE58229F582E5833AF583E022504F
:100B6B0006E92582F8E622BBFE06E92582F8E22299
:0D0B7B00E58229F582E5833AF583E49322B3
:100B8800BC000BBE0029EF8DF084FFADF022E4CC51
:100B9800F875F008EF2FFFEE33FEEC33FCEE9DEC1A
:100BA800984005FCEE9DFE0FD5F0E9E4CEFD22ED60
:100BB800F8F5F0EE8420D21CFEADF075F008EF2FAA
:100BC800FFED33FD4007985006D5F0F222C398FD9B
:050BD8000FD5F0EA2238
:100BDD00E88FF0A4CC8BF0A42CFCE98EF0A42CFCB7
:100BED008AF0EDA42CFCEA8EF0A4CDA8F08BF0A435
:100BFD002DCC3825F0FDE98FF0A42CCD35F0FCEB94
:100C0D008EF0A4FEA9F0EB8FF0A4CFC5F02ECD3958
:0F0C1D00FEE43CFCEAA42DCE35F0FDE43CFC22C5
:10110B00C2D5E830E70FB2D5E4C39BFBE49AFAE40F
:10111B0099F9E498F8EC30E717B2D5121141120C9B
:10112B0076E4C39BFBE49AFAE499F9E498F880031C
:10113B00120C7630D50DE4C39FFFE49EFEE49DFDBB
:04114B00E49CFC2202
:0E0C2C00C3E49FFFE49EFEE49DFDE49CFC22D9
:100EC400020F44E493A3F8E493A34003F68001F2F1
:100ED40008DFF48029E493A3F85407240CC8C3332F
:100EE400C4540F4420C8834004F456800146F6DFFE
:100EF400E4800B01020408102040809013A6E47ED5
:100F0400019360BCA3FF543F30E509541FFEE493F2
:100F1400A360010ECF54C025E060A840B8E493A3B9
:100F2400FAE493A3F8E493A3C8C582C8CAC583CAE4
:100F3400F0A3C8C582C8CAC583CADFE9DEE780BE9C
:0113BE00002E
:100C3A0075F008758200EF2FFFEE33FECD33CDCC71
:100C4A0033CCC58233C5829BED9AEC99E5829840F4
:100C5A000CF582EE9BFEED9AFDEC99FC0FD5F0D6D1
:100C6A00E4CEFBE4CDFAE4CCF9A88222B800C1B9FB
:100C7A000059BA002DEC8BF084CFCECDFCE5F0CB39
:100C8A00F97818EF2FFFEE33FEED33FDEC33FCEB72
:100C9A0033FB10D703994004EB99FB0FD8E5E4F92D
:100CAA00FA227818EF2FFFEE33FEED33FDEC33FC1A
:100CBA00C933C910D7059BE99A4007EC9BFCE99A0E
:100CCA00F90FD8E0E4C9FAE4CCFB2275F010EF2F53
:100CDA00FFEE33FEED33FDCC33CCC833C810D70753
:100CEA009BEC9AE899400AED9BFDEC9AFCE899F88E
:0E0CFA000FD5F0DAE4CDFBE4CCFAE4C8F92221
:00000001FF
